:020000041000EA
:1000000000B5324B212058609868022188439860DF
:10001000D860186158612E4B002199600221596106
:100020000121F02299502B49196001219960352056
:1000300000F044F80222904214D00621196600F024
:1000400034F8196E01211966002018661A6600F04E
:100050002CF8196E196E196E052000F02FF8012189
:100060000842F9D1002199601B49196000215960AB
:100070001A491B48016001219960EB211966A021F2
:10008000196600F012F800219960164914480160C1
:100090000121996001BC002800D000471248134993
:1000A000086003C880F30888084703B5996A0420EC
:1000B0000142FBD001200142F8D103BD02B5186610
:1000C0001866FFF7F2FF186E186E02BD00000240BE
:1000D000000000180000070000035F00212200005C
:1000E000F4000018222000A00001001008ED00E03C
:1000F00000000000000000000000000074B24E7A12
:1001000000200420F7010010C3010010C5010010F9
:10011000C1010010C1010010C1010010C101001097
:10012000C1010010C1010010C1010010C701001081
:10013000C1010010C1010010C9010010CB01001065
:10014000CD010010CD010010CD010010CD01001037
:10015000CD010010CD010010CD010010CD01001027
:10016000CD010010CD010010CD010010CD01001017
:10017000CD010010CD010010CD010010CD01001007
:10018000CD010010CD010010CD010010CD010010F7
:10019000CD010010CD010010CD010010CD010010E7
:1001A000CD010010CD010010CD010010CD010010D7
:1001B000CD010010CD010010CD010010CD010010C7
:1001C00000BE00BE00BE00BE00BE00BEEFF3058054
:1001D000103800BEF2EB8871E07B0010087C001044
:1001E0003402001090A31AE700201F49086006C8D7
:1001F00081F3088810471D48006800282FD10DA4FE
:100200000ECC002902D000F012F8F9E71849194A7B
:10021000002000E001C19142FCD1174988471749ED
:1002200088471749884700BEFDE701C901C29A42C5
:10023000FBD37047087C0010C0000020EC190020A0
:1002400034950010000004200000042034950010B4
:10025000001004200010042000000000704709482E
:1002600003F092FC0047000008ED00E0000000D021
:10027000F01900200420002065280010750C0010E3
:10028000252800105756000006005250ABB36053AB
:100290003476001006005250861C0302447600108B
:1002A000060052505422A29D507600100500525074
:1002B000DE65F46834950010F8B5C0460648074975
:1002C000091A8B10C90FC91810B5491003D0044B77
:1002D000002B00D0984710BDEC190020EC1900202D
:1002E00000000000054B10B5002B03D00449054861
:1002F00000E000BFFFF7E2FF10BDC04600000000B5
:10030000E01C00203054001070B506000D1C081CC5
:1003100004F03AFB84B2002C12D0200004F00CFB55
:10032000011C281C04F0DFFA8721C90504F0FBFA40
:1003300004F02AFBC3B21B0224041C43346070BDCA
:100340000023F8E710B504001022002104F0C4FBDC
:1003500080235B022360F8235B0263608023DB025F
:10036000A360C0231B03A360200010BD70B5040070
:100370000D00FFF7E7FFEA1C636809490B40ED0138
:100380002B43120313436360E268D200D20880213A
:1003900089050A43E260034A13406360200070BD90
:1003A0007F00FEFFFFFFFF9F1B4B1B68002B08D148
:1003B0001A4B5B68DB03FBD4184BFF2212021A6155
:1003C0007047174B1A68022A07DD144B5B68DB0382
:1003D000FBD4124BFF2109061961022A0CD0012A15
:1003E00012D0002AECD10D4B5B68DB03FBD40B4B26
:1003F000FF2212041A61E3E7084B5B68DB03FBD4BE
:10040000064B08491961EAE7044B5B68DB03FBD440
:10041000024B05491961E4E7C01C00200000205090
:10042000EC1700200000FFFF0011FFA0F0B5CE4642
:10043000474680B587B004000D00160098460EAB05
:1004400080CB1B7899462A4B98424DD007214046D5
:1004500000F0DEFC0123009342462900200004F056
:10046000CBFE310002A8FFF781FF059B214A134014
:1004700042469202134305934B46002B36D020226E
:1004800004991D4B194080239B020B435206F8210F
:1004900089050A40134304939B009B088022D205E0
:1004A00013430493052002F0B7F804F045FA8046A0
:1004B0001249381C04F037FA011C404604F01DFABA
:1004C000011C02A8FFF720FF02AB32002900200028
:1004D00004F0E4FE23680122AA401343236007B01E
:1004E000C0BCB946B046F0BD0621B0E71822C7E748
:1004F00000002050FF83FFFFFFFFF5C100002041F7
:1005000010B500F0D3FC10BD01238340002903D0B7
:10051000D022120653627047D02212069362FAE785
:1005200010B504000122042100F0B0FC01220821D2
:10053000200000F0ABFC10BD10B5114B1B68112B57
:1005400007DC00280AD0012811D00D4A13680133B6
:10055000136001210B4802F043F910BD2E3004F066
:10056000FBFB074B1A68084B2E219954EDE72C3002
:1005700004F0F2FB024B1A68034B2D219954E4E777
:10058000401C002028230000C41C002030B500259A
:1005900016E00132052A0FDC1A4B9C5C1A4B6900ED
:1005A000491948001B189B5C9C420DD1002C0DD0B2
:1005B000002BEED1012300E00123002B08D10135EF
:1005C000232D12DC0022E5E70023F6E70123F4E700
:1005D0000E4B1B68C52B07DC0D4A13680D49485D9F
:1005E0000D49C8540133136030BD084B1B68C52B3F
:1005F000FADC07490B68084A3F20D05401330B60EE
:10060000F2E7C046C41C002014170020401C002044
:100610000C1E0020F0160020101E002010B50A4B02
:100620001B68122B00DD10BD084A0021D154064B77
:1006300019600131064802F0D3F8202004F08CFB49
:10064000FFF7A4FFEFE7C046401C0020C41C0020B9
:100650002823000010B504F079FE242103F0C0FA2D
:10066000080010BD10B504F071FE0A2103F0B8FABD
:10067000080010BD10B5FFF797FE284804F0A0FB56
:10068000274804F09DFB274804F09AFB264804F015
:1006900097FB264804F094FB254804F091FB25487D
:1006A00004F08EFB244804F08BFB244C200004F063
:1006B00087FB234804F084FB200004F081FB2148E1
:1006C00004F07EFB200004F07BFB1F4804F078FB65
:1006D000200004F075FB1D4804F072FB1C4804F078
:1006E0006FFB1C4804F06CFB1B4804F069FB200006
:1006F00004F066FB194804F063FB194804F060FB42
:10070000184804F05DFB184804F05AFB174804F041
:1007100057FB174804F054FB10BDC046305400107E
:10072000345400100C550010F8550010C456001039
:100730009057001074580010485900109C59001030
:10074000F0590010445A0010985A0010EC5A00104A
:10075000405B0010945B0010E85B00103C5C0010F4
:10076000905C0010E45C0010385D00108C5D00109F
:10077000E05D001010B50A2004F0EEFA0A4804F01B
:100780001FFB0A4804F01CFB094804F019FB094848
:1007900004F016FB084804F013FB084804F010FBB3
:1007A000074804F00DFB10BD345E0010CC5E001055
:1007B000745F001014600010B460001060610010DD
:1007C000FC61001010B50A2004F0C6FA064804F0D7
:1007D000F7FA064804F0F4FA054804F0F1FA05487F
:1007E00004F0EEFA10BDC0463462001068620010DA
:1007F0009C620010D062001010B50A2004F0ACFA20
:10080000064804F0DDFA064804F0DAFA054804F078
:10081000D7FA054804F0D4FA10BDC046346200107F
:100820000463001038630010D0620010F0B5C646B3
:1008300000B590B0224B98461C68200003F0D4FC11
:1008400006000F001F4D2868201803F0CDFC0200A1
:100850000B003000390003F038FC00221A4B03F083
:1008600052FC0EAA04F0DCFD0022174B03F04BFCF7
:1008700003F0D2FC04000E980F9903F0CDFC0200A7
:100880001249230001A803F051F9114804F098FA25
:10089000104804F095FA434619680F4804F0C0FA6E
:1008A00029680E4804F0BCFA0D4801A904F0B8FA12
:1008B0000C4804F085FA10B080BCB846F0BDC046C4
:1008C000F01F0020F41F0020000059406C6300104E
:1008D0003462001094630010C8630010FC630010C1
:1008E00030640010D062001010B50A2004F034FA11
:1008F0000B4804F065FA0B4804F062FA0A4804F069
:100900005FFA0A4804F05CFA094804F059FA094809
:1009100004F056FA084804F053FAFFF787FF10BDB9
:100920003C64001008650010E4650010B06600101B
:1009300080670010546800101869001010B50A2074
:1009400004F00AFA0A4804F03BFA0A4804F038FABC
:10095000094804F035FA094804F032FA084804F06E
:100960002FFA084804F02CFAFFF760FF10BDC046CC
:100970004869001084690010C4690010086A0010FA
:100980004C6A0010906A001010B5354B1B685A1E57
:10099000012A40D9033B012B3CD8FFF763FE314BC2
:1009A0001860314804F00CFA304C200004F008FACA
:1009B0002F4804F005FA2F4B19682F4804F030FA3D
:1009C0002E4B19682E4804F02BFA200004F0F8F999
:1009D0002C4804F0F5F9224B1B68022B20DD214B3B
:1009E000196832235943284BC918284804F018FACB
:1009F0001E4804F0E5F91A4B1A68D10F501801236C
:100A000003405B1A012B13D0184804F0D9F9204891
:100A100004F0D6F910BDFFF71DFE124B1860C0E7B9
:100A20001C4B104A1268995C1B4804F0F9F9DFE787
:100A3000022A09DD0B4B196832235943174BC91899
:100A4000174804F0EDF9DFE7064B1B685900C91899
:100A50004900144BC918124804F0E2F9D4E7C04623
:100A6000D81C0020081D0020C06A0010F46A001085
:100A7000286B0010EC1700205C6B0010741C002029
:100A8000946B0010CC6B001068030020006C001009
:100A90008C6C0010F0160020306C00102C0D002023
:100AA000686C00101417002010B50022554B1B680D
:100AB000002B00D189E0544B1B68591E01291DD918
:100AC000033B012B27D9002A5ED0504C2368013309
:100AD00023604F4A136801331360FFF78DFE2368CC
:100AE000042B34DC4B4B1B68022B02DC494A0133DC
:100AF0001360FFF749FFFFF757FC10BD464B19780D
:100B0000464B474800681B5C9942DCD1454B1B684B
:100B1000022BDADDD7E70022092A10DC3E4B985C75
:100B2000414B3F490C68322161435B189B5C984202
:100B300007D1002807D0002B07D00132ECE70122B3
:100B4000C1E70022BFE70122BDE70122BBE7FFF7B3
:100B5000F5FE2E4A002313602D4A1360334A1360BA
:100B6000294B1B68042B04D0274A136801331360F8
:100B7000B8E7FFF7FFFD274B03221A60214B002245
:100B80001A60FFF777FDEFE7FFF71CFE214A1368B5
:100B9000013B13601D4A0021116024490A6801329B
:100BA0000A60002B02DDFFF7EFFEA4E7194B0322DA
:100BB0001A60144B00241C60FFF796FE144B1C6057
:100BC0001A4B1C60FFF756FD95E7164B1B68013B5F
:100BD000012B00D98FE7104B1A781300313BDBB2A1
:100BE000032B00D987E7303A074B1A60074B0022E6
:100BF0001A60084B03321A60024B023A1A60FFF780
:100C0000C3FE78E7C01C0020D81C0020741C002004
:100C1000F01F0020EC170020101E0020F01600200E
:100C2000081D00200C1E002068030020F41F002077
:100C300010B50B4B1B68C62B02DC0A4A0021D154AD
:100C40000121094801F0CCFD084804F0B9F8FFF78C
:100C50002BFF074B00221A60014B1A6010BDC046E3
:100C60000C1E0020101E002028230000305400100D
:100C7000401C002010B582B004F0DEF80B490C4C8B
:100C8000200004F09DFA020001230193094B009318
:100C90001C2300212000FFF7C9FB0121064801F0B9
:100CA0009FFD00F00DF8002002B010BD0C77001081
:100CB000000020500050434928230000000000009D
:100CC00000F008F800F012F800F022F8FFF7D2FC6C
:100CD00030BFFDE700B51520FFF712FC15200021FD
:100CE000FFF712FC1520FFF71BFC00BD334A11680B
:100CF00040220A4432481060304A116844220A44B3
:100D0000304810603048314A1060314A10607047F6
:100D10002A4A116874220A442E4810602E482B4A31
:100D200010602B4A1060704700B52C4A2C4811689F
:100D300001442C4A1160294A2B48116801442B4A6E
:100D4000116003212A4A116000BD00B52949012024
:100D50000860FFF763FC00BD00B52649022008606B
:100D6000FFF766FF00BD00B5234A1168234888429B
:100D700003D0234888420AD000BD224A10601C4A92
:100D800000211160154A11681F4A1160F4E71D4ADD
:100D90001060124A11681C4A1068091A1B488142E7
:100DA00004DCFFE70020FFF7C7FB03E00120FFF7AB
:100DB000C3FBFFE7FFF7B8FFDEE7000008ED00E048
:100DC0004B0D0010590D00100300000080E200E000
:100DD00000E100E0670D0010002000000C4005401D
:100DE00040420F001040054080841E001440054022
:100DF0003840054034400540284101400000400093
:100E000000008000F8400140F017002090D003005F
:100E100010B58300084A944663441A68402462402F
:100E2000803414408022520113431C60C000034BE5
:100E30009C466044416010BD04C001400040014038
:100E4000072303409B00C00899403C308000014BC1
:100E5000C150704700400140F8B507000C00160073
:100E60001D00FFF7EDFFFB089B00ED180720384041
:100E700080008440002E04D080239B012B431C6003
:100E8000F8BDC0239B012B431C60F9E710B5D023AC
:100E90001B061B68002B03D0024BFFF7DDFF10BDC4
:100EA000014BFAE7304101400041014010B50123F8
:100EB0008340D0221206936293610521FFF7A8FFB9
:100EC00010BD0000034B1B6802201840431E9841D0
:100ED000C0B2704700C00640EFF3108072B6034BFB
:100EE0001B68002BFBD0BFF35F8F70472C0100D035
:100EF000BFF35F8F024B00221A6080F310887047A7
:100F00002C0100D0F8B506000C001500FFF7E4FF37
:100F1000E308F718F15C07222240012393400B42BB
:100F200005D1DBB20B433B70FFF7E2FFF8BD2100B8
:100F3000280001F013FD0000002307E0054A9A187D
:100F40009200BFF35F8F0021116001331F2BF5D991
:100F50007047C04640000034054A1078431CDBB29D
:100F60001370172B02D9130010221A707047C04655
:100F7000F4170020074B9B68103080001950BFF316
:100F80005F8FBFF35F8F044B0021196082F31088DD
:100F90007047C04600ED00E0240100D010B5038882
:100FA000DA0A1C2A05D15B055B1502335B00C01809
:100FB00010BD034B034A0448B12101F037FCC04681
:100FC000C06C001070770010D86C001010B5091AB2
:100FD0000B1F0A4A88180A4A904208D8C90706D443
:100FE0005B105B055B0D0748184380B210BD064BD4
:100FF000064A0748A32101F019FCC046FC0700007F
:10100000FE0F000000E0FFFF1C6D00106477001071
:10101000D86C001010B5091A04394A08090B08D118
:101020004905490D064B0B430380064B1343438090
:1010300010BD054B054A0648AB2101F0F7FBC04641
:1010400000F0FFFF00F8FFFF4C6D00103877001034
:10105000D86C001001238340034A10681840431ED7
:101060009841C0B27047C04600E100E0002904D0BA
:10107000034B1860034B18607047034B1860FBE785
:1010800080E200E000E100E080E100E010B5012333
:1010900083401800FFF7EAFF10BD0000024B9B6879
:1010A00010308000C058704700ED00E070B50400BB
:1010B0000D00EFF3108672B60C4B1B68002BFBD0B3
:1010C000BFF35F8F2000FFF7E9FF094B984201D083
:1010D000A84205D1320029002000FFF74BFF70BD68
:1010E000044B054A0548862101F0A0FB240100D0ED
:1010F000CD0100105C6D001080770010D86C0010DE
:10110000F0B5CE46474680B583B006000D00EFF33C
:10111000108872B64F4B1B68002BFBD0BFF35F8F5C
:101120004D4B9A6834001034A300D7584B4B9F4264
:1011300007D0AF4200D18BE00197494BFB1A2F2B10
:1011400009D9424639003000FFF714FF03B0C0BC94
:10115000B946B046F0BD3000FFF77CFF8146002164
:101160003000FFF793FFBFF35F8FEFF30581002996
:1011700001D08C4211D10123019C9C430020A36823
:10118000AB4212D00622A256002A0DDB53009B1858
:101190009B00334A2000D418F1E7324B324A362103
:1011A0003248FF3101F042FB2000AB4249D1062515
:1011B0006557002D2BDB2A4B6A00521992009B18B1
:1011C0009A68A260DA79E2719B795BB2A371002B15
:1011D0000FDA2748A080224B6A00521992009B1810
:1011E000244A11789971157049463000FFF74EFF77
:1011F000A7E7680040198000194BC0180430FFF7BA
:10120000CDFE0100231D1800FFF7E0FEE2E70029F4
:1012100012D100280ED0FF238371174B838015490C
:101220000B78A3710E4A154BA41A644163431B0D3E
:101230000B70D9E7094FF2E71149201DFFF7EAFECD
:10124000D2E7104B084A6A210848FF3101F0EEFA54
:10125000024F76E7240100D000ED00E0CD01001040
:10126000F8170020946D001050770010D86C001013
:1012700001BD00000120002001BDFFFFAAAA00005F
:1012800032180020C86D001070B5012202432E4BA9
:10129000D31A2F2B28D8EFF30583002B2BD0EFF395
:1012A000108C72B6294909680029FBD0BFF35F8F03
:1012B000254C274905002D1B6D416943090D4CB292
:1012C000244989689B00C95891421BD000210329F9
:1012D00032D81D4B4A00521892009B189B795BB282
:1012E000A3421FD00131F2E71B4B1C4AC7211C4807
:1012F000490001F09BFA1B4B184A92211848FF3114
:1013000001F094FA134A92681749D150174B1A7892
:1013100082711C70BFF35F8F0C4B00221A608CF33C
:10132000108870BD084B4A005518AD005D19FF26A6
:10133000AE710F4AAA80E9E70E4B084AD12108484E
:10134000490001F073FAC046F8170020240100D0CC
:10135000AAAA000000ED00E0D06D00101C7700107C
:10136000D86C0010F86D0010CD0100100120002095
:1013700001BDFFFF046E00100022044B02E004498F
:1013800002C30132072AFAD97047C04600E400E0E0
:1013900080808080024B9C466144890001607047D8
:1013A0004000003410B50400FFF7D6FD0100200016
:1013B000FFF7F0FFFF232371BFF35F8F10BD10B560
:1013C0000400FFF7C9FD01002000FFF7E3FFFF2342
:1013D000237100236371BFF35F8F10BD084B5B6AFD
:1013E000994209D8064A926A824207D2994201D0AC
:1013F000012002E0002000E0002070470120FCE70F
:101400000040054010B500290AD003681B7B8B42C1
:1014100006D38068054B9C4661440901401810BD05
:10142000034B044A04483C2101F000FAFFFFFF0F80
:10143000A06E001090780010C46E0010F8B5040083
:101440001700FFF7DFFF0668456839002000FFF747
:10145000D9FF026843680120AB4201D802D00020C6
:10146000C0B2F8BDB242FBD8F9E7000010B5002BBE
:1014700002DB0260436010BD024B034A03483F2178
:1014800001F0D4F9046F00105C780010206F001098
:1014900010B582B004000498059912184B41002B36
:1014A00009DB6846FFF7E2FF009A019B2260636058
:1014B000200002B010BD01225242014BF1E7C046AC
:1014C000FFFFFF7F10B5002908D0037B8B4205D3B7
:1014D00000684B005B18033BC01810BD024B034A69
:1014E0000348682101F0A2F96C6F001038780010F1
:1014F000886F001010B5437B8B4201D1012010BDD5
:10150000FFF7E0FF8378002B01D10020F7E70120EF
:10151000F5E770B50400857B002D01D1280070BD72
:101520002900FFF7CFFF4378A373002B00D1E373AB
:101530000023837043700370F0E70000F8B50600E5
:101540000C001500FFF7BEFF0700002C0DD0002D8A
:1015500011D0AC4215D029003000FFF7B3FF8470E2
:101560003B78002B13D13D70F8BD0A4B0A4A0B485B
:101570006F2101F05BF90A4B074A0848702101F01E
:1015800055F9084B044A0548712101F04FF94370A1
:101590003D70E9E7DC6F001014780010886F0010D0
:1015A000E86F0010F46F001070B506000D00140015
:1015B000002914D0002A14D0436880689847002876
:1015C00006D0220029003000FFF7B8FF280007E00E
:1015D0002A0021003000FFF7B1FF200000E01000DA
:1015E00070BD0800FCE7000070B504000D1E0CD0B3
:1015F000FFF768FF0023837043700370617B2A004C
:101600002000FFF7D1FF607370BD034B034A04480D
:10161000A52101F00BF9C0460C70001028780010CD
:10162000886F001070B504000D1E0FD0FFF762FF29
:1016300000280BD1E17B00290ED1A37B002B03D125
:10164000E37B002B0DD1A573E57370BD084B094AF0
:101650000948F62101F0EAF82000FFF733FF457052
:10166000EBE7064B034A0448FB2101F0DFF8C046D4
:101670001070001004780010886F00103470001093
:1016800010B5002907D003681B7B8B4203D3C068C9
:101690000139401810BD034B034A0448412101F0B1
:1016A000C5F8C046A06E0010F0770010C46E0010A0
:1016B00070B505000C00080000F046FC0949200048
:1016C00000F086FBFFF748FC074B9C466044800017
:1016D00068602C75D0231B061B786B75034BA40028
:1016E000E55070BDD917001040000034F81C0020F0
:1016F0000A4B1A68EFF3108172B61368002BFCD006
:10170000BFF35F8F054B1B68BFF35F8F00221A602A
:1017100081F3108840BF002000217047DC1F0020AB
:1017200010B582B0040000F015FB02000B00684603
:10173000FFF79CFE009A019B22606360200002B0CC
:1017400010BD0000F0B583B0070001921D000AAB88
:101750001C780BAB1E78002C0BD000682100FFF723
:10176000C9FE002809D0194B194A1A48672101F00F
:101770005DF80068FFF7CDFE0400002C02D12000C8
:1017800003B0F0BD21003800FFF73CFE019B036071
:101790004560089B8360099BC36038682100FFF7A0
:1017A00023FFA042EBD1387D019A2B0000F058FBBB
:1017B000051E01D0002E04D00C9B002BDFD01D7025
:1017C000DDE73868210000F005FDF5E748700010FE
:1017D00044780010C46E0010F0B5DE4657464E4601
:1017E0004546E0B58FB00B900021794B8200D4586C
:1017F000894683E029002000FFF704FE8046026846
:101800004368921BBB41002B09DD43461A685B68A5
:101810000B9800F025FB0023984600268AE0002B59
:1018200001D1002AF1D10021584600F0C9FC07007F
:10183000A84215D143461A685B680892099343464B
:101840009E68DB689846002E10D029002000FFF724
:1018500017FF037899461B021F432761002069E0A8
:101860005C4B5D4A5D488E2100F0E0FF5C4B5A4ABC
:101870005A48922100F0DAFF2369002B00D177E06B
:10188000BB4219D106980799002342428B4100922E
:101890000193089A099B0CA8FFF7FAFD0C9A0D9B7F
:1018A0000021049101310391029541460191009676
:1018B0002000FFF747FF16E04A4B474A4748A1215F
:1018C00000F0B4FF069A079B002B01D1002A52D1E9
:1018D00020682900FFF7A6FE29002000FFF7D0FEB0
:1018E000037801330370002323616268BFF35F8FC5
:1018F00013608AF310880120002861D00CA8FFF73C
:101900000FFF0C9E0D9F002200230892099362682E
:10191000EFF3108A72B61368002BFCD0BFF35F8F11
:1019200023689B465D7B002D00D063E7002398462B
:10193000002600206368BFF35F8F00221A608AF3DD
:101940001088002ED8D04B461F022F434146380046
:10195000B047069007916268EFF3108A72B6136879
:10196000002BFCD0BFF35F8F079B002B00DA83E7CF
:10197000079B002BA6DD2369002BA9D0BB4219D100
:101980000CA8FFF7CDFE0C9A0D9B069807990090C6
:1019900001910CA8FFF77CFD0C9A0D9B002104918E
:1019A0000131039102954146019100962000FFF715
:1019B000C9FE98E70B4B084A0848A42100F036FFFF
:1019C0000FB0F0BCBB46B246A946A046F0BDC0462B
:1019D000F81C00207070001074780010C46E0010A5
:1019E000887000109470001010B50C4B5B68002BD1
:1019F00004D00B480A21FFF7CDFC10BD074C094A63
:101A000020682300102100F046FB032000F096F927
:101A100003212000FFF74CFEEBE7C04640180020F2
:101A2000DC1F00203D14001010B5064B5B68002B36
:101A300001D0044810BD044B044A05485E2100F063
:101A4000F5FEC04640180020D0700010D877001076
:101A5000C46E0010F0B5DE4657464E464546E0B52A
:101A60008DB0060090461F00169B9A46179B99461C
:101A700018AB1B780793272302AA944663440022DD
:101A80001A7021E001003000FFF7FAFD00783CE019
:101A90000698002B5CD0079B002B59D04946D047B5
:101AA00004000D0003000B4359D0002940DB08A8B7
:101AB000FFF736FE089A099B0094019508A8FFF7E6
:101AC000E7FC089B9846099F7268EFF3108B72B68B
:101AD000136859424B41D9B20691002BF8D1BFF39C
:101AE0005F8F273302AA9446634404930023039331
:101AF00002934B4601935346009342463B0030000D
:101B0000FFF720FE0400051EBCD17368BFF35F8F92
:101B1000002119608BF31088002D17D0272302AA0B
:101B2000944663441B78002BB2D100022043B0E7F7
:101B300000236242AB410092019342463B0008A859
:101B4000FFF7A6FC089B9846099FBDE7012040428D
:101B50000DB0F0BCBB46B246A946A046F0BD069803
:101B6000F6E7F0B5C64600B584B005008846160015
:101B70001F000AAB1C78FFF757FF029401970096ED
:101B80002A004346FFF766FF04B080BCB846F0BDAC
:101B9000F0B5C64600B505000C1E42D04268EFF312
:101BA000108772B61368002BFCD0BFF35F8FE6B2CC
:101BB0002B68984631001800FFF79CFC00282AD0BB
:101BC0002B69A34213D0240AE4B231002800FFF7A6
:101BD00057FD0378A34211D000206B68BFF35F8FDD
:101BE00000221A6087F3108880BCB846F0BD0E4B07
:101BF0000E4A2C210E48FF3100F018FE31004046FD
:101C000000F0E8FA0028E8D10A4B084A9921084870
:101C1000490000F00BFE2B69A342DED100232B61AB
:101C2000DBE70020E0E7C046F4700010C07700104A
:101C3000C46E00101871001010B50400FFF7F4FE18
:101C40002100FFF7A5FF10BD30B583B005000C00E3
:101C5000EFF30583002B0FD10B4A00230093FFF70E
:101C600080FF00280BDD20BFFFF7E6FF28002100E2
:101C7000FFF7B4FB03B030BDFFF7B0FBFAE7280075
:101C80002100FFF7ABFBF5E7F116001010B5002BB4
:101C900002DB0260436010BD024B034A03483F2150
:101CA00000F0C4FD046F0010B8780010206F001021
:101CB00070B5EFF305801038EFF3108C72B6194B46
:101CC0001B68002BFBD0BFF35F8F01221300834002
:101CD00015494B6315490B60154909780C00C44040
:101CE000224213D0104A546A124A8500AA589442DC
:101CF00005D3114AAA580E4C9943217007E00A4AAD
:101D0000031D9B0099589950002200E00022BFF368
:101D10005F8F044B002119608CF31088002A00D0DB
:101D2000904770BD280100D0004005403C70054040
:101D300002200020E01F0020301C002010B5010010
:101D4000024A034B1800FFF7DDF810BD1C710010AC
:101D500000200020044B5B6A034A906A1900536A12
:101D60009942F9D17047C04600400540084B5B6A74
:101D700001E0074B5B6A8B42FBD301E0044B5B6ADB
:101D80008B4203D1024B9B6A8342F7D37047C04614
:101D900000400540F0B583B004000D00FFF7DAFF06
:101DA00006000F0022002B0092197B41994202D8B5
:101DB00004D1904202D901225242D3176846FFF75C
:101DC00065FF00980199FFF7D1FF03B0F0BD000057
:101DD00070B504000E00EFF3108572B61B4B1B6844
:101DE000002BFBD0BFF35F8F002E1CD02000FFF72D
:101DF00055F9174B83420BD019002000FFF756F915
:101E000001212000FFF742F90123A340114A13608A
:101E1000114BA400E650BFF35F8F0C4B00221A60F9
:101E200085F3108870BD0C4BA2000021D150012217
:101E3000A2400A490B7893430B7005492000FFF735
:101E40005FF900212000FFF721F9E4E7280100D025
:101E5000B11C001038600540301C0020022000201A
:101E6000F0B5DE4600B584B00400150001921E00F6
:101E70000293FFF76FFF03958E4202D84ED1854241
:101E80004CD9EFF3108B72B6274B1B68002BFBD09D
:101E9000BFF35F8F254A17780125A540EBB23B437E
:101EA0001370234B5D63221D92000199D150214A8A
:101EB000A100029888501B6A2B4212D11C4B1B6C4C
:101EC0002B4208D00020BFF35F8F174B00221A600F
:101ED0008BF3108823E0184B184A1948C52100F0ED
:101EE000A5FCFFF737FF8E4214D802D1039B834233
:101EF00010D80E4B1B78BB420ED00D4B1D625D639C
:101F00001F222240012393400E4A1360074B1F708B
:101F10000120D8E70020D6E70120D4E7012004B053
:101F200080BCBB46F0BDC046280100D00220002086
:101F300000400540E01F0020407100109C78001018
:101F40006471001080E200E0EFF3108C72B60B4B6E
:101F50001B68002BFBD0BFF35F8F01238340084A2F
:101F6000136208490A789A430A70BFF35F8F034BE4
:101F700000221A608CF310887047C046280100D0F8
:101F8000004005400220002010B5002908D0037B46
:101F90008B4205D300684B005B18033BC01810BD93
:101FA000024B034A0348682100F040FC6C6F0010AC
:101FB00010790010886F0010F8B506000C001500AD
:101FC000FFF7E2FF0700002C0DD0002D11D0AC422E
:101FD00015D029003000FFF7D7FF84703B78002B25
:101FE00013D13D70F8BD0A4B0A4A0B486F2100F02F
:101FF0001DFC0A4B074A0848702100F017FC084BEB
:10200000044A0548712100F011FC43703D70E9E776
:10201000DC6F0010FC780010886F0010E86F001073
:10202000F46F001070B506000D001400002914D0E4
:10203000002A14D0436880689847002806D0220000
:1020400029003000FFF7B8FF280007E02A00210030
:102050003000FFF7B1FF200000E0100070BD080065
:10206000FCE770B505000023437301338373037BE2
:10207000C373012406E021002800FFF785FF013427
:10208000E4B24470297BA142F5D82800FFF77CFF19
:102090000023437070BD10B5017342608360FFF789
:1020A000E0FF10BDF0B5C64600B505000C1E03D11B
:1020B000200080BCB846F0BDFFF766FF4678002ED2
:1020C000F6D031002800FFF75FFF477800239846DD
:1020D000437021002800FFF757FF4346437032004A
:1020E00021002800FFF79EFF040039002800FFF7B9
:1020F000D9FF020021002800FFF794FF0400D7E772
:10210000F0B5C64600B504000D001700002927D021
:10211000FFF73AFF4378002B28D18378002B2BD18F
:1021200001782000FFF7BEFF06008046002F0AD08E
:10213000E17B002926D1A37B002B03D1E37B002B7D
:1021400025D1A573E5734346002B26D12900200035
:10215000FFF71AFF00234370300080BCB846F0BD83
:10216000114B124A1248382100F060FB114B0F4A04
:102170000F483A2100F05AFB0F4B0C4A0C483B2108
:1021800000F054FB2000FFF7FFFE4570D3E70B4B38
:10219000064A0748422100F049FB31002000FFF7C2
:1021A000F3FE00238370D1E7AC710010E8780010D3
:1021B000B4710010F47100101C7200103470001023
:1021C00070B504000A00457B2900FFF799FF607392
:1021D000280070BD70B506000C1E40D0437B8B42BA
:1021E00007D0FFF7D1FE05008178002906D1002035
:1021F00036E00121FFF7E4FF012031E03000FFF776
:10220000C3FE0178A1420DD03000FFF7BDFE41783A
:10221000A1420AD00029F7D1124B134A13486B315F
:1022200000F004FB6B78037001E06B7843700023CF
:10223000AB706B70012221003000FFF761FF0200DC
:10224000717B814205D03000FFF7ECFE70730120F6
:1022500006E0074B044A0548712100F0E7FA002028
:1022600070BDC046046E0010D0780010B47100102C
:102270004072001070B5046BE30701D4200070BDFC
:1022800002003032C0239B0113430A4A1A60456A98
:10229000836AAD01ED18AD02062000F0BDF90649D4
:1022A00001F0C6FC0100280001F0C2FC0021FFF78C
:1022B00071FDE3E7010300004E0E000070B504005D
:1022C0000E001500FFF7D6FF22002C32E36A5E40B5
:1022D000354080235B0113431D60206370BD000007
:1022E00070B505000C00062000F096F9C000210032
:1022F00001F09EFCC60908D00E4B9E4216D87F23E3
:102300000340013334005E0800E001246C62AE62D9
:10231000002200212800FFF7D1FF062000F07CF901
:102320008000A101891901F083FC70BD0026024CD8
:10233000ECE7C046FEFF0000FFFF000010B50539C6
:102340004901013AD2001143002B09D002220A436D
:10235000012B07D0002111436E22FFF7AFFF10BD04
:102360000022F4E70421F6E7002909D00A22064BEF
:102370009C46604443425841044B4000C25270475F
:1023800080225200F3E7C0460080FCBFF81F002007
:1023900070B505000C00062000F03EF9061E27D09F
:1023A000164B9D4226D08022D203154B1A60154B46
:1023B0001A60154B9B6811009943FAD1002128003F
:1023C000FFF7D2FF21002800FFF78AFF0600002355
:1023D000012208212800FFF7B1FF2A002C328023B8
:1023E0009B01134310221A60084B2B630323AB6439
:1023F000300070BD80221204D7E7C0460080034041
:1024000000E0004000F0004000C000400103000078
:10241000F8B5DE4657464E464546E0B506000F0085
:1024200015000A9A934250D31A0E92461B02984600
:102430000A9A00234046514601F038FC8146740058
:10244000A419A4002F4B9C4664446368834200D2C5
:102450006060331FDBB29B46012B3CD9C0239B013C
:102460002343802212011A60274BB200D158002961
:1024700007D0586901F0DCFB013043001B18033B17
:10248000FDD26D0123685D40E0222A4080235B017C
:1024900023431A605A46012A28D980239B012343EB
:1024A000802212011A604B4663604A460023404670
:1024B000514601F0FBFB144BB60098510120F0BCD3
:1024C000BB46B246A946A046F8BD104B104A11487B
:1024D000332100F0ABF9012FC0D1C0239B0123436E
:1024E00003221A60A368DB07FCD5CAE7216879409C
:1024F00003220A401A60A3680125BD401D42FAD09C
:10250000CBE7C046008000404C1C002060720010E9
:102510001C7900107472001030B583B00C2000F0EC
:1025200011F9FEF7CFFC00280DD0002304E02E4A5D
:1025300099002E4888500133092BF8D92A4B2C4A90
:102540005A6203B030BD2B4B00229A6700F054F959
:10255000294B01221A60274B5B6C012BFBD1274BC7
:1025600003221A60234B9B6B012BFBD10133009399
:102570000433234A0121234800F054F80523009333
:10258000214A0121214800F04DF8214B00930022FF
:1025900002210420FFF73CFF1E4D00952B00002276
:1025A00001210520FFF734FF104C00942300002286
:1025B00000210720FFF72CFF0094230000220021B8
:1025C0000820FFF725FF0A4B00932300002200217B
:1025D0000920FFF71DFF00952B0000220021062097
:1025E000FFF716FFADE7C0464C1C0020006CDC0274
:1025F0001BB70000008000403CB0004030B00040FD
:10260000002F685900800240008C864700C00240BD
:10261000001BB70040597307014B8000C05870473A
:102620004C1C0020F0B5C64600B504000E00170093
:102630001D00374801F0FCFA8046364BFA18364B3D
:102640009A4239D80100380001F0F2FA0200103A3B
:1026500098235B009A4235D86B1E062B38D8069B10
:10266000013B062B34D83F09474537D32D04069B41
:102670001B031D432368002B36DB284B9C4244D0B0
:1026800080235B01264A1360264A1360264A92681B
:1026900019009143FAD12660A060221DC0239B013E
:1026A000134321221A602268002AFCDAE56008221E
:1026B0001A6080BCB846F0BD1C4B1D4A1D48112154
:1026C00000F0B4F81C4B1A4A1A48192100F0AEF871
:1026D0001A4B174A17481C2100F0A8F8184B144A47
:1026E0001448232100F0A2F822683F231340B3428C
:1026F000C3D1A3681B051B0D8342BED1E368EE2244
:10270000D2021340AB42B8D1D3E780239B01B9E793
:10271000001BB70080E84BD380F8A93200C002400C
:1027200000E0004000F0004000C00040C072001017
:102730002C79001020730010647300108073001057
:10274000CC73001080239B000343014AD36270477F
:1027500000800540024B1A68024B5A607047C04621
:10276000DC1C00200080054010B5174B8022D205EC
:102770001A60164B164A1A6000290AD0154BE0223F
:10278000D2041A60002809D1124B802212061A6066
:1027900010BD0D4BE022D2041A60F3E743011B1A6F
:1027A0009B00181800010C4B186080235B049842B2
:1027B00002D3094B094A1A60FFF7CCFF054B802270
:1027C000D2051A60E4E7C04600B005400820014089
:1027D000FCFF010000A00540DC1C0020FFFFFF0003
:1027E00010B5034B034ADA61FFF7BEFF10BDC046C8
:1027F000008005402131B76A064BAA2212011A60F7
:102800002F22DA60044B054A1A60024B5B68002BEA
:10281000FBDA7047004002400060024000B0FA005E
:1028200000BEFDE710B5FFF7FBFF000030B583B039
:102830000D001900002A0BD0074B084C01920093A1
:102840002B000200200002F0EBFA0120FFF7E8FF66
:10285000034B1A00F1E7C046E8730010F87300104C
:10286000646C001070B52B4B2B4A1A602B4B2C4A12
:102870001A602C4B9A682A4B9343FAD12A4C01E0F8
:1028800008CC9847294B9C42FAD3FFF745FE234BCF
:10289000274A1A60234B9B68DB43DB01FAD1254BA7
:1028A00040229A675A671A67DA66234C09E0234B7D
:1028B000234A24488721FFF7B9FF2000FEF772FD65
:1028C0000834214B9C4209D22368002BF5D0012B00
:1028D000EDD12000FEF773FD0834F2E71B4DA96827
:1028E0001B4CC022200002F0FDF8AC60EFF3058322
:1028F000002B00D000BEFEF71FFBFEF73DFDFFF7EB
:1029000073F8144C01E008CC9847134B9C42FAD35F
:1029100070BDC04600E00040BFCDFBFE00F00040AF
:10292000FE7F3C0000C00040D8190020E8190020BC
:10293000FFFFFF0100F00140D019002028740010B3
:102940003879001048740010D819002000ED00E01C
:1029500000000020E8190020EC1900200FB400B599
:1029600083B0084802F02CFA049B002B07D005A97D
:102970000191180002F034FA034802F021FA012014
:10298000FFF74EFF90740010305400109A4200D2AE
:1029900088547047704710B5002802D00B6849680A
:1029A000984710BD0100002007E083001B185B0062
:1029B000501C08601078C01830380A681378303B13
:1029C000DBB2092BF1D97047F0B5DE4657464E46CB
:1029D0004546E0B583B093461F000C9B9A460D9C7C
:1029E0000E9B99460F9B9B0703D0B8460F0006002D
:1029F00022E00192A34688464E46B9460700B442FB
:102A000007D2551C4B4641462020B84701342A00C6
:102A1000F5E73D004F465C46019B9B46B146464666
:102A2000B84637002E0007E0013C551C5346185DA0
:102A300043463900B0472A00002CF5D135003E004E
:102A400047460F9B9B0707D4100003B0F0BCBB4662
:102A5000B246A946A046F0BDB0464E46B9462F0044
:102A60005D46531BB342EFD2541C4B4641462020D7
:102A7000B8472200F5E7F0B5CE46474680B585B0A9
:102A8000944698460C9D0D9C0EAB1B789946109A67
:102A9000119B129EB7071CD4002B0CD0F7070AD548
:102AA0004F46002F02D10C37374204D0013B02E0E1
:102AB00030272F550134944201D21F2CF8D9F70743
:102AC00007D59C4205D21F2C03D830272F5501343F
:102AD000F5E7F70612D5770505D4002C03D094420C
:102AE00021D09C421FD00F9A102A32D00F9A022A6E
:102AF00037D01F2C0AD830222A5501341F2C05D874
:102B00004A46002A33D02D222A55013403960293D7
:102B10000194009543466246FFF756FF05B0C0BCDE
:102B2000B946B046F0BD621E012C10D00F9F102F89
:102B30000BD014000F9A102AD8D1B206D6D51F2C6C
:102B4000D4D858222A550134D3E7023CCBE71400ED
:102B5000C9E7B206EED41F2CECD878222A550134EE
:102B6000C7E71F2CD2D860322A550134C1E772075B
:102B700003D52B222A550134C8E73207C6D52022B7
:102B80002A550134C2E7F0B5DE4657464E46454663
:102B9000E0B593B081468A46089209931CAB10CBEE
:102BA0001B789B461E9D219B9846002C03D1102329
:102BB00042469A4390468023DB0046461E404246EA
:102BC0001A4212D0002C22D000260EE03033D9B2A7
:102BD000771C0AAB99552900200001F029F8AC4276
:102BE00016D31F2F14D83E0004002900200001F046
:102BF0001FF8CBB2092BE9D94246920605D54121EF
:102C0000C918C9B20A39C9B2E2E76121F8E7270059
:102C100043460693209B05931F9B049303955B46B5
:102C2000029301970AAB0093099B089A51464846C4
:102C3000FFF721FF13B0F0BCBB46B246A946A04641
:102C4000F0BDF0B5DE4657464E464546E0B597B076
:102C50000A900B910C929A46209B9946219F22AA9A
:102C600013789B46249B0993259C289B98464A46AB
:102C70003A4302D11032934398468022D20045460F
:102C80001540434613420AD04A463A4341D00025F4
:102C90002E0053460D934D46099B9A461BE02E008D
:102CA00053460D934D46099B9A4614E03033DAB2F1
:102CB000731C99460EAB9A555246230028003900E2
:102CC00000F0F4FFBC4226D819D04B461F2B1CD86D
:102CD0004E4605000F00524623002800390000F040
:102CE000E5FFD3B2092BE1D94246920605D5412230
:102CF000D218D2B20A3AD2B2DAE76122F8E7AA458C
:102D0000E3D94E460D9B9A4608E04E460D9B9A46E7
:102D100004E0002602E04E460D9B9A464346069389
:102D2000279B0593269B0493099B03935B46029381
:102D300001960EAB009353460C9A0B990A98FFF735
:102D40009AFE17B0F0BCBB46B246A946A046F0BDFD
:102D5000F0B5DE4657464E464546E0B591B0804652
:102D600089460C929A461A9C1B9D22002B0020003B
:102D7000290001F026FA002800D0ECE0012252429E
:102D8000D44B2000290001F017FA002800D0E2E01F
:102D900001225242D04B2000290001F0F7F900280F
:102DA00000D0D8E0002200232000290001F0EEF935
:102DB000002800D0E4E0069407958023DB001E9AEB
:102DC0001A400D921E9A1A4201D106231C930698AE
:102DD000079902000B000892099303000A000243BE
:102DE00000D1D9E0080D4005400DBC4EB44660440A
:102DF0000A03120B1E00BA4B13431F0001F0F4F933
:102E0000B84AB94B01F07FF9B84AB94B01F054F90F
:102E1000089009910022B74B3000390001F043F9C6
:102E2000B54AB64B01F06FF902000B0008980999FA
:102E300001F042F901F0F0F9834601F0D5F90600FE
:102E40000F00AF4AAF4B01F05EF90022AE4B01F02C
:102E500033F901F0E1F90890AC4AAD4B300039008C
:102E600001F051F906000F00089801F0BDF9A94AD8
:102E7000A94B01F048F902000B003000390001F0C5
:102E800012F906000F0002000B0001F03CF90A9055
:102E90000B91089BA14A94466344002100220891AB
:102EA00009921B0509930023089332003B00300070
:102EB000390001F001F90E900F9132003B00002023
:102EC0008021C90501F0EFF806000F000022944BA5
:102ED0000A980B9901F0F9F80022924B01F0ECF8F6
:102EE00002000B000A980B9901F0EFF800228E4BBC
:102EF00001F0E2F802000B000A980B9901F0E5F8E6
:102F000002000B003000390001F0D6F802000B007F
:102F10000E980F9901F0D9F80022714B01F0CCF80E
:102F2000089A099B01F0EFF806000F000896099730
:102F3000069A079B01F040F900282FD001235B423D
:102F40009C46E3440022774B3000390001F0BDF885
:102F50000890099122E01E9B04931D9B03931C9BE8
:102F600002930094019553460C9A4946404600F05E
:102F7000FFF811B0F0BCBB46B246A946A046F0BD72
:102F80000021002206910792069480231B069C468E
:102F9000AC446346079310E700239B465B466333CC
:102FA000C62B20D804261E9B1B0528D5089A099BF2
:102FB000190011430FD05D4A5D4B0698079901F047
:102FC000F3F800287AD000225A4B0698079901F0AE
:102FD000DDF8002872D01C9B5B4506DD5A469B1A23
:102FE000013B1C9303E00526DDE700231C938023AF
:102FF000DB001E9A1A431E92002600239B461D9B4F
:103000009E4265D29F1B02231E9A1A400A921E9A64
:10301000134202D0002E00D000275B46002B07D0C1
:10302000089A099B0698079901F04FF806900791B6
:10303000002200232000290001F0A8F8002800D079
:103040007CE03D4B1E9A1340049303971C9B029314
:10305000069B079C0093019453460C9A49464046B0
:1030600000F086F8002E00D183E71E9B9B0671D5E9
:103070004525441C5346020049462800C0475A468D
:10308000D317D2185A4005230593013E0496002316
:1030900003930A3302935B46DB0F0193009253467E
:1030A000220049464046FFF76EFD0A9B002B00D1E7
:1030B0005FE7020047460C9E1D9D53E01C9B002BC2
:1030C0009DD00D9B002B9AD01C9B013B1C9396E737
:1030D000002798E7FFFFEF7FFFFFEFFF01FCFFFFF7
:1030E0000000F03FFB799F501344D33FB3C8608B7F
:1030F000288AC63F0000F83F61436F63A787D23F2D
:1031000071A379094F930A400000E03F1655B5BB03
:10311000B16B0240EF39FAFE422EE63FFF0300009A
:1031200000002C4000002440000018402D431CEB00
:10313000E2361A3F80842E41FFF7FFFF069C079D71
:103140002200290080200006844661440B0006927C
:10315000079376E765258CE7541C534649462020A3
:10316000B8472200931BAB42F6D3100001E7C046DC
:10317000F0B5DE4657464E464546E0B595B006905A
:10318000079193469946209F1E9A1F9B1000190095
:1031900001F017F8002831D101225242BF4B1E988E
:1031A0001F9900F0F3FF002837D101225242BC4B97
:1031B0001E981F9901F000F800283DD10022B94B5C
:1031C0001E981F9900F0F8FF002850D10022B64B3E
:1031D0001E981F9900F0DAFF002848D10022002332
:1031E0001E981F9900F0D2FF002850D10023984666
:1031F000229B5B0500D4B6E0002458E0229B039399
:10320000219B029303230193A84B00934B465A46FC
:1032100007990698FFF7D8FB0EE1229B0393219BA9
:10322000029304230193A24B00934B465A460799FD
:103230000698FFF7C9FBFFE00423229A1A4022995F
:103240000B4210D09B4B002A0FD0042222990391ED
:1032500021990291019200934B465A46079906988C
:10326000FFF7B2FBE8E0944BEDE70322EEE7229B89
:103270000493219B039302971E9B1F9C0093019430
:103280004B465A4607990698FFF762FDD4E01E9A0E
:103290001F9B0020002100F006FF1E901F910123BC
:1032A0009846A5E70CAB30221A55013F01341F2C7C
:1032B00001D8092FF6D81E981F9900F0ADFF050020
:1032C00000F092FF02000B001E981F9900F0EBFE29
:1032D0007A4BFA009B181A685B680A920B9300F00D
:1032E00012FF0890099100F0BBFF060000F078FF84
:1032F00002000B000898099900F0D5FE089009918A
:1033000000226F4B00F058FF00282ED0013630000D
:1033100000F066FF02000B000A980B9900F03CFFDA
:10332000002801D001350026002F2CD1280000F004
:103330005BFF02000B001E981F9900F0B4FE060010
:103340000F0000225E4B00F021FF002846D1002232
:103350005B4B3000390000F02FFF00283ED1EB0717
:103360003CD501353AE0062746E70022544B089841
:10337000099900F00BFF0028D6D1002E01D0F307E9
:10338000D2D50136D0E7AA461F2C11D8013F0A2119
:10339000300000F04DFC651C30310CAB19550A2192
:1033A000300000F045FC092E0ED906002C00EBE79A
:1033B00055461F2C0CD87B1E002F09D00CAA30219B
:1033C00011551F000134F4E72B0055461C00F0E7AF
:1033D0001F2C03D80CAB2E221A5501341F2C10D8E9
:1033E0000A21280000F0FCFB661C30310CAB19559B
:1033F0000A21280000F0F4FB051E01D03400EDE79F
:1034000034000323229A1340012B1CD01F2C06D812
:103410004346002B32D00CAB2D221A550134229B8F
:103420000393219B029301940CAB00934B465A46A5
:1034300007990698FFF7C8FA15B0F0BCBB46B2462C
:10344000A946A046F0BD219B002B13D04346002B7C
:1034500002D10C3313420FD0219B013B2193190061
:1034600003E00CAB30221A5501348C42CED21F2C13
:10347000F7D9CBE72199F8E72199F6E7229B5B077B
:1034800004D50CAB2B221A550134C8E7229B1B072D
:10349000C5D50CAB20221A550134C0E7FFFFEFFF62
:1034A000FFFFEF7F65CDCD4165CDCDC1AC74001080
:1034B000B0740010A0740010A8740010E87A001016
:1034C0000000E03FF0B5DE4657464E464546E0B5C3
:1034D00093B08246884693461193002900D10DE3AC
:1034E00000255646119B1878002800D109E32528AD
:1034F00009D06C1C5B462A004146B047119B013342
:1035000011932500EEE701331193002720E00123FA
:103510001F4301321192012418E002231F4301329C
:103520001192012412E004231F430132119201245D
:103530000CE008231F4301321192012406E01023FE
:103540001F4301321192012400E00024002C09D015
:10355000119A1378203BD9B21029F6D88B00C849AC
:10356000CB589F46119B1A781300303BDBB2092BD6
:1035700010D92A2A13D00B94119B1A782E2A1ED008
:10358000119A1378683BD9B2122959D88B00BD49DA
:10359000CB589F4611A8FFF705FA0B90ECE71C9B50
:1035A0001A1D1C921B68002B04DB0B93119B01332B
:1035B0001193E1E7022217435B420B93F6E7802267
:1035C000D20017435A1C11925A781300303BDBB2D9
:1035D000092B0BD92A2AD3D11C9B1A1D1C921C68BB
:1035E000002C08DB119B01331193C9E711A8FFF7E9
:1035F000D9F90400C4E70024F4E780235B003B43CF
:10360000511C119151786C2901D01F0018E0C02382
:103610009B001F430232119212E080233B43511C56
:1036200011915178682901D01F0009E0C0231F4380
:103630000232119204E080235B001F430132119299
:10364000119B1878672818D8252800D24CE203006F
:10365000253BDAB2422A00D946E293008A4AD3587F
:103660009F4680239B001F4301321192E8E780238D
:103670005B001F4301321192E2E7782800D933E260
:10368000692800D230E20200693AD2B201239340A5
:103690007E4A134211D11A0600D500E25B0500D420
:1036A00022E21C9B1A1D1C921B689A46002C00D01B
:1036B000B2E10122524253468EE16F280ED006D865
:1036C00058283DD0622804D102239C4608E078287F
:1036D00039D010239F43063B9C4601E008239C46BB
:1036E000582833D0692803D0642801D00C2297438E
:1036F0007A0501D50122974369282AD0642828D069
:10370000BA0500D59FE0FA0500D5C1E07A0600D4DD
:10371000D3E01C9A111D1C911168FF220A400597E5
:103720000B9B04930394634602930023019300923E
:103730005B462A0041463000FFF725FA050027E0E6
:1037400010239C46CCE710239C46C9E72022174350
:10375000C8E7BA0520D4FA0550D47A0666D51C9A73
:10376000111D1C911168FF220A40D0171118414009
:1037700005970B9B0493039463460293D20F019227
:1037800000915B462A0041463000FFF7FCF9050036
:10379000119B01331193A5E61C9A073207218A4336
:1037A000110008311C91116853689946DB170C937E
:1037B0000D930C9A0D9B100048400E904A465340C2
:1037C0000F930E980F990C9A0D9B801A99410E90A9
:1037D0000F9108970B9B079306946346049300236D
:1037E00005934B46DA0F0292009001915B462A0046
:1037F00041463000FFF725FA0500C9E71C9A111D64
:103800001C911268D0171118414005970B9B049327
:10381000039463460293D20F019200915B462A0003
:1038200041463000FFF7AFF90500B1E73A0605D58C
:103830001C9A111D1C910023D25E96E71C9A111D43
:103840001C91126891E71C9A073207218A431100E4
:1038500008311C9108970B9B0793069463460493C9
:1038600000230593029353681268009201935B460C
:103870002A0041463000FFF7E4F9050088E7C0461A
:10388000487900108C790010D87900104190000020
:103890001C9A111D1C9105970B9B0493039463467E
:1038A000029300230193136800935B462A0041466C
:1038B0003000FFF768F905006AE73A0606D51C9A5A
:1038C000111D1C9112681204120C28E71C9A111D7C
:1038D0001C91126823E7462819D01C9B0733072246
:1038E00093431A0008321C9204970B9A0392029495
:1038F0001A685B68009201935B462A0041463000DB
:10390000FFF736FC0500119B01331193EAE52023F4
:103910001F43E2E7672801D0472802D180231B011B
:103920001F43452801D0472801D120231F431C9B5A
:103930000733072293431A0008321C9204970B9A0C
:10394000039202941A685B68009201935B462A0016
:1039500041463000FFF7FCF90500119B013311933C
:10396000C0E502231A003A4091463B421DD0012493
:103970001C9B1A1D1C926F1C18785B462A0041463E
:10398000B0474B46002B14D1119B013311933D00DE
:10399000A8E5571C5B4641462020B04723003A006B
:1039A0005C1C9D42F5D81500E2E701232A000B9D1F
:1039B000F6E73A00B1460B9E06E0571C5B464146CF
:1039C0002020C8472C003A00651CA642F5D81700F5
:1039D0004E46D9E701330A001978002902D0511E5A
:1039E000002AF7D152469B1A8022D200390011409A
:1039F0008946174202D0A34200D9230002221100B7
:103A0000394010913A4209D02A00250057469A467B
:103A100033004E46994621E022004CE62A004546F6
:103A2000A04606E0541C5B4629002020B0473B001E
:103A300022005F1C0B999942F4D84446A8463B00EB
:103A4000250057469A4633004E46994606E01D002B
:103A50000137541C5B464146C8472200387800288D
:103A600004D0002EF4D06B1E002DF0D1150053466B
:103A70004E46109A002A03D1119B0133119331E570
:103A80000B9F2A0006E0551C5B4641462020B047AC
:103A900023002A005C1C9F42F5D81500ECE7212387
:103AA0003B431C9A111D1C91126805930823049333
:103AB0000394083302930023019300925B462A008B
:103AC00041463000FFF75FF80500119B0133119369
:103AD00008E56C1C5B462A0041462520B047119B37
:103AE000013311932500FDE46C1C5B462A0041461E
:103AF000B047119B013311932500F3E40A4B9A461A
:103B0000EEE4B2465D450DD35B465A1E5B46414628
:103B10000020D047280013B0F0BCBB46B246A946EF
:103B2000A046F0BD2A00F1E7952900100EB430B58B
:103B300084B0010007AC08CC03940122054D009429
:103B400052422800FFF7BEFC04B030BC08BC03B0F2
:103B50001847C0468D29001000B585B0029003912A
:103B600001210448009313004A4202A9FFF7AAFC6E
:103B700005B000BD9729001001480421014B1847EA
:103B800070180020A93B001010B5010018231B88F5
:103B900014221088984710BD10B5010018231B8807
:103BA00016221088984710BDF0B5C64600B507002C
:103BB0000E0000250123984600E00135B5420AD2E7
:103BC000AC003C192068FFF7DFFF20600028F4D12B
:103BD00000239846F1E7404680BCB846F0BD00009F
:103BE000124A936F9B0815D29066D166002905D0C2
:103BF000FFE7FFE7FFE7516F106F704704B58021C3
:103C00000906C2175140002800D0C84301F0F8FB54
:103C1000002104BDF0B5146E556E576F166FFFF797
:103C2000E3FF1466556657671667F0BD000000D0C5
:103C3000114A936F9B0813D210665166002905D074
:103C4000FFE7FFE7FFE7516F106F704704B50028EB
:103C500001D00020C04301F0D3FB002104BDC046C9
:103C6000F0B5146E556E576F166FFFF7E5FF1466CB
:103C7000556657671667F0BD000000D094464A4A63
:103C8000926F9208624601D228E0C046F0B5464ED7
:103C9000346E756E776F366F00F020F89446424AA6
:103CA00014665566576716676246F0BD94463E4AED
:103CB000926F9208624601D254E0C046F0B53A4E87
:103CC000346E756E776F366F00F04CF89446364A56
:103CD00014665566576716676246F0BD002B24DBF5
:103CE00011D000293EDA00B5C943404200D101316C
:103CF00000F038F8C943404200D10131DB43524261
:103D000000D1013300BD002AEBD1002801D10029E8
:103D100005D00020C90FC90701D1C043410800B533
:103D200001F066FB0022002300BD00B500290ADB7C
:103D3000DB43524200D1013300F014F8C943404242
:103D400000D1013100BDC943404200D10131DB4304
:103D5000524200D1013300F005F8DB43524200D15A
:103D6000013300BD002923D1002B18D1002A0CD02B
:103D7000BC460D4F38667A6600210023FFE7FFE757
:103D8000FFE77A6F386F67467047002801D0074811
:103D9000010000B501F02CFB0022002300BD020051
:103DA0000B00002000217047000000D0FFFFFFFF44
:103DB000002B00D0BFE0130C28D1002AE7D080B43C
:103DC000114F39667A66FFE7FFE730B4040C7B6F6A
:103DD000396F1B0423433B667A66FFE7FFE7FFE783
:103DE000C04684B27B6F3D6F1B0423433B667A66FB
:103DF000FFE7FFE7C04600232C042D0C7A6F386FD5
:103E000000196941B0BC7047000000D0F0B594467D
:103E10000025140E01D112020835140F01D1120130
:103E20000435940F01D192000235D40F01D1520014
:103E30000135D40B0134254F7C66254C3C660E0CB5
:103E400093B2FFE7FFE7FFE73C6F6643360C77036B
:103E5000BE467343DF0B5B04C01AB941130C7343B6
:103E6000DB18C91ACE086643360CB64493B27343C6
:103E70001F0F1B01C01AB941130C73431F0B1B0505
:103E8000C01AB941860D8F023E436643360C092D98
:103E900024DB520A7243801A7703460A6643360CC3
:103EA00016235B1BDE40DF40BF1964466643821B5E
:103EB0007046043506330100D940A840C01900D32C
:103EC0000131A24206D20023F0BD0000000000D064
:103ED000FFFFFFFF121B0130F3D3F1E709277F1B20
:103EE000FE406446A2B27243801A00D20139220C0D
:103EF0007243130C1204821A99410B007046043568
:103F000013370100F940A840801900D30131002B7C
:103F100002D1A2420AD2F0BD013000D30131121BFE
:103F2000FAD2013BF8D1A24200D2F0BD013000D359
:103F30000131121BF7E7F0B51C0C00D080E00CB487
:103F400000251C0A04D11B02160E33431202083549
:103F50001C0B04D11B01160F3343120104359C0BBB
:103F600004D19B00960F334392000235DC0B02D143
:103F700092185B4101351C00971864410134464F8B
:103F80007C66464C3C660E0CFFE7FFE7FFE7C04649
:103F90003C6F6643360C7703BE4697B27743C01B2F
:103FA00000D20139C01B00D201399FB27743C91B2F
:103FB000C91B170C77437E04FF0B801BB941CE0849
:103FC0006643360C0C2D33DBB644120B1F053A4307
:103FD0001B0B97B27743C01B00D201399FB27743C6
:103FE000C91B170C77433E043F0C801BB941860D5B
:103FF0008F023E43664329277F1BFE400C3D7746D8
:10400000AF40BF1930BCA2B2ABB272437343801A47
:104010009941220C7243130C1204801A9941020038
:104020000B000137001BA941F9D2781E0021F0BD19
:104030000C277F1BFE4077467F0BAF40FF19E0E760
:1040400000245D1C07D0144F7D663966FFE7FFE74B
:10405000FFE7FFE73C6F95B29EB265436643401BA6
:10406000B141150C1E0C6543664336042F0C3E43CC
:104070002D04401BB141994204D202000B002000E4
:104080000021F0BD01D19042F7D3801A994101344B
:104090009942F2D3F6E70000000000D0FFFFFFFFD7
:1040A00048404140484018B41B4B5B68FC460193B4
:1040B00008BD04DF7F43001018B4174B1B68FC4693
:1040C000019308BD00DF894300109446134A926FA4
:1040D000920809D2624618B40F4BDB68FC46019384
:1040E00008BD0CDF414600100C4AF0B5146E556E49
:1040F000576F166F6246FFF7EEFF084A1466556663
:1041000057671667F0BD18B4034B9B68FC460193D4
:1041100008BD08DFE54400100C1D0020000000D0A1
:10412000FFB550404240504059404B40594000E09C
:10413000FFB5154F4C00640D03D0BC4204D10C03F5
:1041400014D80020090D09055C00640D03D0BC42A1
:1041500004D11C030AD800221B0D1B0501264B406D
:1041600009D44B4003D58B4200D18242FFBD994216
:10417000FCD19042FFBD0B43DB1803431343F5D042
:10418000C9434918FFBD0000FF07000000B5FFF755
:10419000CFFF804100BDC04600B5FFF7C9FF01D980
:1041A000002000BD012000BD00B5FFF7B9FF01D917
:1041B000002000BD012000BD00B5FFF7B1FF804128
:1041C00000BD012040054A00121804D85A001218F8
:1041D00001D8002070470120704700207047000080
:1041E0000021002805D17047C1174840401AFAD075
:1041F000C90713B5064B1B6898470CBC441CA2406A
:104200001005120B0349091B09051943114310BD81
:10421000D81E00201F04000010B54C00620D802342
:10422000D218DB00D21A5B057E2A10DD9E3A13DA23
:10423000CC170903490819435242D14064000134A4
:104240001532202A05DAD0400843604310BD002013
:1042500010BD0846604310BDC80FC018013810BD1E
:1042600018B4044B5B6AFC46019308BD24DFF14798
:10427000001000000C1D002070B513231C78012CC9
:1042800012D0012C12DC214B214A93642148FFF704
:104290007BFC214B186070BD1C491D4A9800815061
:1042A00001331F2BF8D9ECE70023FAE71B48FFF78F
:1042B00073FC05001A48FFF76FFC023803789B0077
:1042C0007F2B09DD12488022290000F00BFC022C14
:1042D00008D0022CDADCD6E7124B134A13483221FD
:1042E000FEF7A4FA124B1A88B5231B029A4209D191
:1042F000104B1A88104B9A4204D1104B1A88104B5D
:104300009A42E6D00020FEF729FBC0464543001044
:104310000C1D00204C330000D81E00205344000028
:1043200053460000B8740010387B00100C75001064
:1043300054380000D8380000494600009C3800007E
:104340005946000007B56046002800D100BE01882C
:104350000A0A0230DF2AFAD1C9B2820804D30288DD
:1043600040880004104300E00068024A5050039067
:1043700007BD00000C1D00200FB403BC0CBCF0B541
:104380000124E407634000E0F0B50C0DCF0F661E7A
:104390003605891B640503D3C943404200D301316C
:1043A000640D03D0661CF60A07D0E41B00207F00D2
:1043B000791C89078912803C24031D0DDF0F6E1EB6
:1043C00036059B1B6D0503D3DB43524200D30133FB
:1043D0006D0D03D06E1CF60A07D0ED1B00227F0086
:1043E0007B1C9B079B12803D2D032F1B661B58D403
:1043F000A446202E46DA20371400BC401D00BD40E4
:10440000F24033412A4380185941CB0F05D0C943AC
:10441000C043002264425041514162464D0D28D1B3
:104420000D0D07D100281FD0241940414941013A00
:104430000D0DF9D0640006D3013000D30131002CFA
:1044400001D140084000013A0BD4941CE40A04D185
:1044500012051144DB071944F0BDD907204B19435D
:1044600000E0D9070020F0BD0029DDD1002CDBD110
:10447000F0BD0132C6074008CD0728434908002E89
:10448000E1D0D9E73C2E29DA203E40371400BC4069
:1044900000D00124F24014431A00BB401C43D31740
:1044A000ACE7AC46202F08DA20360400B4400D00FB
:1044B000B540F84039412843A5E73C2F0CDA203FAE
:1044C00040360400B44000D00124F8400443080002
:1044D000B1400C43C117EAE710001900002494E72B
:1044E0000000F07FF0B50C0D661E3605891BE60A4C
:1044F0006405640D02D0651CED0A04D00020012182
:104500000905803C2403A4461C0D671E3F05DB1BE8
:10451000E70A6405640D02D0651CED0A04D0002290
:1045200001231B05803C24037740644497B484B284
:1045300096B27443070C7E43150C6F4380B26843F8
:10454000361802D3012000043F183004350C00193E
:104550007D41844688B29AB250430C0C62431F0CD2
:104560007C438EB27E43921902D301263604A419ED
:104570001604170C3618674101BC81B29AB2514338
:10458000040C62431B0C5C4380B25843121802D3E4
:104590000120000424181004130C401863412D1846
:1045A0005E410020474106BC88B293B258430C0CD0
:1045B0006343120C544389B251435B1802D3012167
:1045C0000904641819041A0C091862416D1856413F
:1045D0000020474118BCF902720D1143F0026A0D28
:1045E0001043ED020A0D03D16D1940414941013BD1
:1045F000124E9B1B7600B3420ED26D0007D30130E2
:10460000002671416646354301D1400840001B0534
:10461000C918E4072144F0BD0BDA013306D101309B
:1046200004D101314F0D01D04908F2E7E107002024
:10463000F0BD013631050020EBE70000FF0300006C
:10464000F0B51C0D671E3F05DB1BE70A6405640D12
:1046500002D0661CF60A04D0002201231B05803C10
:104660002403D0252D060026F6432E661E096E660D
:10467000CE0FF619B44649004F0D02D07E1CF60A43
:1046800003D000200021403F3F033E1BB600B4444E
:10469000013F7F05C91B49082E6F013676089C0231
:1046A000950D25437543ED137543AD1301356D101D
:1046B000F603761B0CB4CC02450D2C43A2B2B3B268
:1046C0005A43270C7B43350C6F43A4B26C431B1930
:1046D00002D3012424043F191C041D0CA4187D419D
:1046E00024196D41009A91B2ACB26143170C7C431E
:1046F0002B0C5F4392B25A43A41802D30122120436
:10470000BF182204230C52187B41019C6C431B19D7
:10471000520ED9010A434401A01A81B2B2B25143E8
:1047200003145A43360C734387B27743D617D21912
:1047300000277E4136049B191704160C7F185E4132
:104740007316ED18F301002680337541A90F06D1C9
:104750006400690AE8055B0A184309D22FE00422C5
:10476000944480337541A90AA8059B0A184326D3AF
:10477000404149412404009A019B0D005543641BAC
:104780004343E41A95B286B27543170C7E43030C7B
:104790005F4392B25A43B61802D301221204BF18E3
:1047A0003204330C52197B4152429C41002C02D4FA
:1047B0000022013051414008CA071043490802B0A5
:1047C0006246D7079210084BD218084B9A4203D280
:1047D00012058918C919F0BD0020002A01DC390032
:1047E000F0BD01331905F5E7FD030000FE070000E9
:1047F000002200B5203200F004F8080000BD0000DF
:1048000000220B150AD410B5944600F031F81414A8
:10481000013400DA0021CB17144C2047002000217E
:1048200070476244343A0CD40C2A07DA04009140F1
:10483000904052422032D440214310BDD843D94346
:1048400010BD203207D40C46944052422032114110
:10485000D040204310BD0800C917203203D4524273
:104860002032104110BD1800190010BD234800105F
:104870000A0DCC0F531E1B05C91A520503D3C94399
:10488000404200D30131520D03D0531CDB0A07D044
:10489000121B00206400611C89078912803A1203F0
:1048A000014BD21A70470000FF03000051434343FD
:1048B000C9188C46110C83B24B4310B4040C6143ED
:1048C00092B280B2504362431C041B0C001910BC0E
:1048D00059411304120CC018514161447047000043
:1048E00048404140484000239C46114B5B681847B4
:1048F00000239C460E4B1B6818470E4A936F9B087B
:1049000004D200239C460A4BDB681847F0B5146EAE
:10491000556E576F166FFFF7F4FF064A146655661B
:1049200057671667F0BD00239C46014B9B681847EC
:10493000DC1E0020000000D0491A002808D10846DB
:1049400070470000C10FC90700D54042002817D0AA
:10495000F44603B40B4B1B68984706BC81409E3855
:104960004042803107D20B0607D04900490AC005F2
:104970001043084360470130F8E7490A8902F5E728
:1049800070470000D81E002000239C46014B5B6A44
:1049900018470000DC1E002070B513231E782A483B
:1049A000FFF7FAF80500012E11D0012E09DDAB1E2C
:1049B0001B789B007F2B40DD24488022290000F0DB
:1049C00091F82348FFF7E0F8224B186070BD1F48AC
:1049D0005422290000F086F81F4B1A881F4B9A4278
:1049E0001CD1A7239B011A881D4B9A4216D11D4B3F
:1049F0001A881D4B9A4211D11C4B1A8894239B0193
:104A00009A420BD11A4B1A881A4B9A4206D11A4B6A
:104A10001A681A4B9A4201D1152307E01848FDF78E
:104A20009DFF184C094A99008C5001331F2BF8D96F
:104A3000144B064A1362D361B7E7134B134A144869
:104A40004221FDF7F3FEC04653460000DC1E002065
:104A50004C330000D81E0020EE290000C40F0000D7
:104A6000C20D0000962B0000C0B50000182B0000FE
:104A7000CC2A000010B50000FC2C000051ED87642A
:104A8000646C0010954A00105C7500104C7B00109F
:104A90009075001007B56046002800D100BE01885F
:104AA0000A0A0230DF2AFAD1C9B2820804D3028886
:104AB00040880004104300E00068024A5050039010
:104AC00007BD0000DC1E002001480421014B1847EF
:104AD00080180020A93B0010014B1B6818470000FC
:104AE00080180020014B5B681847000080180020E8
:104AF00010B50300080011001B68984710BD0000A6
:104B0000F8B507000D001600437D002B02D00024ED
:104B100000200CE003681100280098472DE03B7D41
:104B200010E03B68154802219847601C0134B442EC
:104B300014DA002CF3DD2B19013B1B780D3B5A4294
:104B40005341DBB22A5D0A2AF0D1002BEED1A042FC
:104B5000E7DA3B68211A28189847E2E7B04203DAFF
:104B60003B68311A28189847002E06DDAD19013D23
:104B70002B780D3B5A4253413B75F8BD907B00109A
:104B800070B505000368002B16D00C4B1C6805E0BF
:104B9000290004C92000FFF7B3FF2469002C09D0C5
:104BA0002368002BF9D0064B1B68002BF0D0A342E2
:104BB000F3D1EDE700232B6070BDC046B81C002088
:104BC000BC1C002070B505000C000B68802B05D0C4
:104BD00023685A1C2260E418257170BD0800FFF795
:104BE000CFFFF5E710B5002B02DB0260436010BD7C
:104BF000024B034A03483F21FDF718FE046F0010E3
:104C0000947B0010206F001010B582B00400FDF7F7
:104C1000A1F802000B006846FFF7E4FF009A019B31
:104C200022606360200002B010BD000070B582B049
:104C3000060014001D00FA229200002306980021AD
:104C4000FFF734FE02000B0012196B41002B09DB49
:104C50006846FFF7C7FF009A019B3260736030001F
:104C600002B070BD01225242004BF1E7FFFFFF7F0F
:104C700030B585B004000D0002A8FFF7C5FF029A09
:104C8000039B00952000FFF7D1FF200005B030BD49
:104C900000B583B0FA2189006846FFF7E9FF009A62
:104CA000019B024800F0B4FB03B000BDD019002006
:104CB00010B5024800F094FB10BDC046D01900208A
:104CC000F0B5CE46474680B583B006000D0090464D
:104CD0001C00FFF7DDFF81466B1C05D0002C08D0BF
:104CE000194F1A4B1C6807E0300000F049FB050023
:104CF000F4E7174FF5E72469002C17D02368002B41
:104D0000F9D0144B1B68002B01D0A342F3D12A0029
:104D100031002000B8474346002BECD06B46D91D2C
:104D20000A230B7001222000B847E4E74B46002B12
:104D300007D16B1E9D41E8B203B0C0BCB946B04676
:104D4000F0BDFFF7B5FFF4E7F14A0010B81C0020F2
:104D5000014B0010BC1C002010B582B004006B4653
:104D6000D81D0470002300220121FFF7A9FF2000B5
:104D700002B010BD094A01E010331A001368002B7D
:104D800008D08342F8D1002907D1036913600023BA
:104D9000036102E0002900D010607047B81C0020B9
:104DA00010B5064B1C6801E098472469002C03D01D
:104DB0006368002BF8D1F8E710BDC046B81C00208E
:104DC00070B5050000F0DCFA0400002301220100A8
:104DD0002800FFF775FFFFF7E3FF200070BD00001C
:104DE00070B5A2B004000E00FFF752FF05000023CB
:104DF00001930A483300220001A9FEF7ADFE04002A
:104E000001A8FFF7BDFEFFF7CBFF002D02D1200068
:104E100022B070BDFFF74CFFF9E7C046C54B00104C
:104E20000FB400B583B004A901C90191FFF7D8FF01
:104E300003B008BC04B0184710B500F0FFF801201B
:104E400010BD000010B582B00C00144BC3185A42BC
:104E50005341134A5B009B5E8B4204D06B46DA1DC4
:104E60001470002115E06B46DA1D0D23137000212C
:104E70000029F3D183699B06FCD4137803600131C8
:104E80000132F5E783699B06FCD413780360013196
:104E900001320029F6D002B010BDC0460080FCBF30
:104EA000F81F002082B000226B46D91D06E08369FE
:104EB000DB06FCD403680B7001320131002AF6D006
:104EC0006B46D87902B0704770B506000D0000241B
:104ED00005E0315D034B1868FFF7B4FF0134AC42C5
:104EE000F7DB70BDFC1F0020F8B506000D000027A1
:104EF00005E07C1CF719FFF7D5FF38702700AF429B
:104F000004DA0E4A10688269D206F2D50C4A126899
:104F1000002A0CD0094A12685021916310003430E5
:104F2000526B183911408022520102431160002F48
:104F300001D03800F8BD033FFBE7C046FC1F00204E
:104F4000441C002010B5064B1B68002B06D0054AF8
:104F5000126800219163044A1068984710BDC0464A
:104F6000441C0020FC1F0020481C002070B50500D8
:104F70000E001C4B1A681C4BD31859424B4114337A
:104F80001C0000281ED0194B1B68002B04D0174BA7
:104F90001D60174B1E6070BD16492000FCF786F897
:104FA00001212000FCF772F80E4B1B6850229A6317
:104FB000190034315B6B183A1A4080235B010B43B4
:104FC0001A60E4E7094B1B68002BE0D000239363D1
:104FD00000212000FCF75AF806492000FCF790F861
:104FE000D5E7C046FC1F00200080FCBF441C002009
:104FF000481C0020454F001070B50D001C000D4BE3
:105000001860002A0BDA002C0EDA0A4B1868290007
:10501000FDF7BEF908480121FFF7ACFE70BD022183
:105020001000FBF7F5FEEEE702212000FBF7F0FE93
:10503000EBE7C046FC1F00209018002010B5064B7F
:105040001B78064B1B78E12101230022490204480A
:10505000FFF7D2FF10BDC046047C0010007C00109A
:105060000040034010B5040010220021FFF734FD7A
:1050700080235B022360F8235B0263608023DB02F2
:10508000A360C0231B03A360200010BD0523CB56E3
:10509000002B01DB934211D1094B9C4660444342F3
:1050A0005841084B8000C058097901238B40013BCF
:1050B0009340184043425841C0B270470020FCE77B
:1050C0000000D0AF281C002070B50A79202A19D81A
:1050D000174B9C46604443425841164B8000C458CD
:1050E00001239340013B497949B2002910DB0800B4
:1050F0002025AA1A914218DC8B401C4201D00120C5
:10510000404270BD0C4B0D4A0D484021FDF78EFB0F
:105110002020801A002805DB1A0082401442F0D0BB
:105120000138F7E701204042EBE701204042E8E781
:105130000000D0AF281C002088760010C07B001033
:10514000B476001070B505000C001600FFF79EFF46
:10515000002801D0002108E01648FDF7FFFB9A194E
:105160008B1912339B005A51013123798B4211D98B
:10517000227863781B021343A27812041A43E3785F
:105180001B0613434A009B5A802292019342E6D3A6
:105190001A00E5E701229A401300013B064A9446B3
:1051A00065446A4255410549AD006A58B34013430E
:1051B0006B5070BDF87600100000D0AF281C0020A6
:1051C000F8B505000E00FBF787FE07003100280048
:1051D000FFF77AFF041E09DB020031002800FFF709
:1051E000B1FF3800FBF784FE2000F8BD0148FDF751
:1051F000B5FBC046F8760010F0B5C64600B506AC63
:1052000025784C006618F60086193700DC373F68B1
:10521000BC46CC363668B0466418E400C83404197D
:105220000434C026B60134438026B6022660002D21
:1052300001D01F2614E0002612E05401A0256D05C0
:1052400025434C006418E40004192700DC373D6056
:10525000114D3543D8342560053B05321F242240CB
:10526000052BEAD89B06520113434C006218D2006A
:1052700082181500DC352B60074B3343D83213609E
:1052800063462B606418E4000019CC304346036089
:1052900080BCB846F0BDC04680E0000070B584B068
:1052A00004000D00160002680121A9408A43026033
:1052B000002B34D0186869004919C90061180A0028
:1052C000C832106058680432106098680432106068
:1052D000DB68DC310B606A005319DB00D033E31864
:1052E000802149010B438021090619601960164B82
:1052F000AB40A3602B1D01210800984080239B0137
:105300002343186028000830814019601F23334070
:105310005219D200A418D834236004B070BD684676
:10532000FFF7A0FE00996B005B19DB00E3181A0081
:10533000C83211600199043211600299043211607F
:10534000039ADC331A60C6E701010101094B10B56D
:105350001C68094A983420686168084BFFF7A6FA70
:1053600001220023801859412060616048004008F4
:1053700010BDC046A81800202D7F954C2DF4515823
:1053800010B583070AD00300032102E001330B426A
:1053900005D01A78002AF9D1181A10BD030019682F
:1053A0000C4A0D4C8A188A4322420FD15968094A87
:1053B00004338A188A43224208D15968054A0433C3
:1053C0008A188A432242F1D000E001331A78002A79
:1053D000FBD1E1E7FFFEFEFE80808080F8B5C0468D
:1053E00001B40248844601BC604700BFC9010020E7
:1053F00001B40248844601BC604700BF2503002079
:1054000001B40248844601BC604700BF2503002068
:1054100001B40248844601BC604700BF95010020EA
:1054200001B40248844601BC604700BF1502002059
:105430000A000000E29688E29688E29688E2959754
:10544000202020E29688E29688E29688E2959720CE
:10545000E29688E29688E29688E29688E29688E26A
:105460009688E2959720E29688E29688E29688E20E
:105470009688E29688E29688E2959720E29688E2FE
:105480009688E29688E29688E29688E29688E29686
:1054900088E29597E29688E29688E29688E2968876
:1054A000E29688E29688E29688E29597202020206E
:1054B00020E29688E29688E29688E29688E29688CC
:1054C000E29688E2959720E29688E29688E29688AE
:1054D000E29688E29688E29688E2959720E296889E
:1054E000E29688E29688E29688E29688E29688E2DA
:1054F000959720E29688E29688E29688E29688E27E
:105500009688E29688E29688E2959700E29688E28D
:105510009688E29688E29688E2959720E29688E25D
:105520009688E29688E29688E29591E29688E296DD
:1055300088E29594E29590E29590E29590E29688C3
:10554000E29688E29597E29688E29688E29594E260
:105550009590E29590E29688E29688E29597E29699
:1055600088E29688E29594E29590E29590E2959093
:10557000E29590E2959DE29688E29688E29594E223
:105580009590E29590E29590E29590E2959D20208D
:105590002020E29688E29688E29594E29590E29542
:1055A00090E29590E29590E2959DE29688E2968849
:1055B000E29594E29590E29590E29590E29688E2E9
:1055C0009688E29597E29688E29688E29594E2952D
:1055D00090E29590E29688E29688E29597E2968826
:1055E000E29688E29594E29590E29590E29590E2B9
:1055F0009590E2959D000000E29688E29688E295FB
:1056000094E29688E29688E29688E29688E29594FB
:10561000E29688E29688E29591E29688E29688E2A0
:105620009591202020E29688E29688E29591E29674
:1056300088E29688E29688E29688E29688E29688E2
:10564000E29594E2959DE29688E29688E29688E259
:105650009688E29688E29688E29688E29597E296A6
:1056600088E29688E29688E29688E29688E29597A4
:10567000202020202020E29688E29688E295912042
:1056800020202020E29688E29688E2959120202032
:10569000E29688E29688E29591E29688E29688E220
:1056A00095912020E29688E29688E29591E296888C
:1056B000E29688E29688E29688E29688E2959720BC
:1056C00020000000E29688E29688E29591E2959AA1
:1056D000E29688E29688E29594E2959DE29688E2C9
:1056E0009688E29591E29688E29688E2959120204C
:1056F00020E29688E29688E29591E29688E2968882
:10570000E29594E29590E29590E29688E29688E29E
:105710009597E2959AE29590E29590E29590E295C0
:1057200090E29688E29688E29591E29688E29688E1
:10573000E29594E29590E29590E2959D20202020BC
:105740002020E29688E29688E29591202020202071
:10575000E29688E29688E29591202020E29688E2FF
:105760009688E29591E29688E29688E295912020CB
:10577000E29688E29688E29591E29688E29688E23F
:105780009594E29590E29590E2959D20200000008E
:10579000E29688E29688E2959120E2959AE29590C9
:1057A000E2959D20E29688E29688E29591E2959AAC
:1057B000E29688E29688E29688E29688E29688E207
:1057C0009688E29594E2959DE29688E29688E29525
:1057D000912020E29688E29688E29591E29688E20E
:1057E0009688E29688E29688E29688E29688E29623
:1057F00088E29591E29688E29688E29688E2968819
:10580000E29688E29688E29688E29597202020200A
:10581000E2959AE29688E29688E29688E29688E295
:105820009688E29688E29597E2959AE29688E296C3
:1058300088E29688E29688E29688E29688E29594D5
:10584000E2959DE29688E29688E29688E29688E262
:105850009688E29688E29594E2959DE29688E29693
:1058600088E29688E29688E29688E29688E29688B0
:10587000E2959700E2959AE29590E2959D2020208E
:105880002020E2959AE29590E2959D20E2959AE299
:105890009590E29590E29590E29590E29590E29550
:1058A0009D20E2959AE29590E2959D2020E2959ABE
:1058B000E29590E2959DE2959AE29590E29590E2CC
:1058C0009590E29590E29590E29590E2959DE29513
:1058D0009AE29590E29590E29590E29590E295900B
:1058E000E29590E2959D2020202020E2959AE29575
:1058F00090E29590E29590E29590E29590E2959DE8
:1059000020E2959AE29590E29590E29590E295904A
:10591000E29590E2959D20E2959AE29590E295902D
:10592000E29590E29590E29590E2959D20E2959A1D
:10593000E29590E29590E29590E29590E29590E262
:105940009590E2959D00000020202020202020201E
:105950002020202020202020202020202020202047
:105960002020202020202020202020202020202037
:105970002020202020202020202020202020202027
:105980002020202020202020202020202020202017
:105990002020202020202020200000002B2D2D2D35
:1059A0002D2D2D2D2D2D2D2D2D2D2D2D2D2D2D2D27
:1059B0002D2D2D2D2D2D2D2D2D2D2D2D2D2D2D2D17
:1059C0002D2D2D2D2D2D2D2D2D2D2D2D2D2D2D2D07
:1059D0002D2D2D2D2D2D2D2D2D2D2D2D2D2D2D2DF7
:1059E0002D2D2D2D2D2D2D2D2D2D2D2D2B00000070
:1059F0007C2020202020202020202020202020204B
:105A0000202020202057656C636F6D6520746F2007
:105A10006F7572207475746F7269616C206F6E207F
:105A20004D6F72736520436F646521202020202014
:105A30002020202020202020202020202020202066
:105A40007C0000007C2020202020202020202020FE
:105A50002020202020202020202020202020202046
:105A6000202020205765206172652067726F757055
:105A70002033212020202020202020202020202012
:105A80002020202020202020202020202020202016
:105A9000202020207C0000007C20202020202020AE
:105AA0002020202020202020205573696E67204769
:105AB0005032312C20656E746572206120736571DF
:105AC00075656E636520746F2063686F6F73652002
:105AD00061206C6576656C3A2020202020202020F3
